{
    "_format": "hh-sol-artifact-1",
    "contractName": "RwaToken",
    "sourceName": "contracts/RwaToken.sol",
    "abi": [
        {
            "inputs": [
                {
                    "internalType": "string",
                    "name": "name",
                    "type": "string"
                },
                {
                    "internalType": "string",
                    "name": "symbol",
                    "type": "string"
                }
            ],
            "stateMutability": "nonpayable",
            "type": "constructor"
        },
        {
            "inputs": [
                {
                    "internalType": "address",
                    "name": "sender",
                    "type": "address"
                },
                {
                    "internalType": "uint256",
                    "name": "tokenId",
                    "type": "uint256"
                },
                {
                    "internalType": "address",
                    "name": "owner",
                    "type": "address"
                }
            ],
            "name": "ERC721IncorrectOwner",
            "type": "error"
        },
        {
            "inputs": [
                {
                    "internalType": "address",
                    "name": "operator",
                    "type": "address"
                },
                {
                    "internalType": "uint256",
                    "name": "tokenId",
                    "type": "uint256"
                }
            ],
            "name": "ERC721InsufficientApproval",
            "type": "error"
        },
        {
            "inputs": [
                {
                    "internalType": "address",
                    "name": "approver",
                    "type": "address"
                }
            ],
            "name": "ERC721InvalidApprover",
            "type": "error"
        },
        {
            "inputs": [
                {
                    "internalType": "address",
                    "name": "operator",
                    "type": "address"
                }
            ],
            "name": "ERC721InvalidOperator",
            "type": "error"
        },
        {
            "inputs": [
                {
                    "internalType": "address",
                    "name": "owner",
                    "type": "address"
                }
            ],
            "name": "ERC721InvalidOwner",
            "type": "error"
        },
        {
            "inputs": [
                {
                    "internalType": "address",
                    "name": "receiver",
                    "type": "address"
                }
            ],
            "name": "ERC721InvalidReceiver",
            "type": "error"
        },
        {
            "inputs": [
                {
                    "internalType": "address",
                    "name": "sender",
                    "type": "address"
                }
            ],
            "name": "ERC721InvalidSender",
            "type": "error"
        },
        {
            "inputs": [
                {
                    "internalType": "uint256",
                    "name": "tokenId",
                    "type": "uint256"
                }
            ],
            "name": "ERC721NonexistentToken",
            "type": "error"
        },
        {
            "inputs": [
                {
                    "internalType": "address",
                    "name": "owner",
                    "type": "address"
                }
            ],
            "name": "OwnableInvalidOwner",
            "type": "error"
        },
        {
            "inputs": [
                {
                    "internalType": "address",
                    "name": "account",
                    "type": "address"
                }
            ],
            "name": "OwnableUnauthorizedAccount",
            "type": "error"
        },
        {
            "anonymous": false,
            "inputs": [
                {
                    "indexed": true,
                    "internalType": "address",
                    "name": "owner",
                    "type": "address"
                },
                {
                    "indexed": true,
                    "internalType": "address",
                    "name": "approved",
                    "type": "address"
                },
                {
                    "indexed": true,
                    "internalType": "uint256",
                    "name": "tokenId",
                    "type": "uint256"
                }
            ],
            "name": "Approval",
            "type": "event"
        },
        {
            "anonymous": false,
            "inputs": [
                {
                    "indexed": true,
                    "internalType": "address",
                    "name": "owner",
                    "type": "address"
                },
                {
                    "indexed": true,
                    "internalType": "address",
                    "name": "operator",
                    "type": "address"
                },
                {
                    "indexed": false,
                    "internalType": "bool",
                    "name": "approved",
                    "type": "bool"
                }
            ],
            "name": "ApprovalForAll",
            "type": "event"
        },
        {
            "anonymous": false,
            "inputs": [
                {
                    "indexed": false,
                    "internalType": "uint256",
                    "name": "_fromTokenId",
                    "type": "uint256"
                },
                {
                    "indexed": false,
                    "internalType": "uint256",
                    "name": "_toTokenId",
                    "type": "uint256"
                }
            ],
            "name": "BatchMetadataUpdate",
            "type": "event"
        },
        {
            "anonymous": false,
            "inputs": [
                {
                    "indexed": false,
                    "internalType": "uint256",
                    "name": "_tokenId",
                    "type": "uint256"
                }
            ],
            "name": "MetadataUpdate",
            "type": "event"
        },
        {
            "anonymous": false,
            "inputs": [
                {
                    "indexed": true,
                    "internalType": "address",
                    "name": "previousOwner",
                    "type": "address"
                },
                {
                    "indexed": true,
                    "internalType": "address",
                    "name": "newOwner",
                    "type": "address"
                }
            ],
            "name": "OwnershipTransferred",
            "type": "event"
        },
        {
            "anonymous": false,
            "inputs": [
                {
                    "indexed": true,
                    "internalType": "address",
                    "name": "from",
                    "type": "address"
                },
                {
                    "indexed": true,
                    "internalType": "address",
                    "name": "to",
                    "type": "address"
                },
                {
                    "indexed": true,
                    "internalType": "uint256",
                    "name": "tokenId",
                    "type": "uint256"
                }
            ],
            "name": "Transfer",
            "type": "event"
        },
        {
            "anonymous": false,
            "inputs": [
                {
                    "indexed": true,
                    "internalType": "uint256",
                    "name": "tokenId",
                    "type": "uint256"
                },
                {
                    "indexed": false,
                    "internalType": "string",
                    "name": "url",
                    "type": "string"
                }
            ],
            "name": "UrlUpdated",
            "type": "event"
        },
        {
            "inputs": [
                {
                    "internalType": "address",
                    "name": "to",
                    "type": "address"
                },
                {
                    "internalType": "uint256",
                    "name": "tokenId",
                    "type": "uint256"
                }
            ],
            "name": "approve",
            "outputs": [],
            "stateMutability": "nonpayable",
            "type": "function"
        },
        {
            "inputs": [
                {
                    "internalType": "address",
                    "name": "owner",
                    "type": "address"
                }
            ],
            "name": "balanceOf",
            "outputs": [
                {
                    "internalType": "uint256",
                    "name": "",
                    "type": "uint256"
                }
            ],
            "stateMutability": "view",
            "type": "function"
        },
        {
            "inputs": [
                {
                    "internalType": "uint256",
                    "name": "tokenId",
                    "type": "uint256"
                }
            ],
            "name": "getApproved",
            "outputs": [
                {
                    "internalType": "address",
                    "name": "",
                    "type": "address"
                }
            ],
            "stateMutability": "view",
            "type": "function"
        },
        {
            "inputs": [],
            "name": "getCurrentTokenId",
            "outputs": [
                {
                    "internalType": "uint256",
                    "name": "",
                    "type": "uint256"
                }
            ],
            "stateMutability": "view",
            "type": "function"
        },
        {
            "inputs": [
                {
                    "internalType": "address",
                    "name": "owner",
                    "type": "address"
                },
                {
                    "internalType": "address",
                    "name": "operator",
                    "type": "address"
                }
            ],
            "name": "isApprovedForAll",
            "outputs": [
                {
                    "internalType": "bool",
                    "name": "",
                    "type": "bool"
                }
            ],
            "stateMutability": "view",
            "type": "function"
        },
        {
            "inputs": [
                {
                    "internalType": "address",
                    "name": "to",
                    "type": "address"
                },
                {
                    "internalType": "string",
                    "name": "uri",
                    "type": "string"
                }
            ],
            "name": "mint",
            "outputs": [],
            "stateMutability": "nonpayable",
            "type": "function"
        },
        {
            "inputs": [],
            "name": "name",
            "outputs": [
                {
                    "internalType": "string",
                    "name": "",
                    "type": "string"
                }
            ],
            "stateMutability": "view",
            "type": "function"
        },
        {
            "inputs": [],
            "name": "owner",
            "outputs": [
                {
                    "internalType": "address",
                    "name": "",
                    "type": "address"
                }
            ],
            "stateMutability": "view",
            "type": "function"
        },
        {
            "inputs": [
                {
                    "internalType": "uint256",
                    "name": "tokenId",
                    "type": "uint256"
                }
            ],
            "name": "ownerOf",
            "outputs": [
                {
                    "internalType": "address",
                    "name": "",
                    "type": "address"
                }
            ],
            "stateMutability": "view",
            "type": "function"
        },
        {
            "inputs": [],
            "name": "renounceOwnership",
            "outputs": [],
            "stateMutability": "nonpayable",
            "type": "function"
        },
        {
            "inputs": [
                {
                    "internalType": "address",
                    "name": "from",
                    "type": "address"
                },
                {
                    "internalType": "address",
                    "name": "to",
                    "type": "address"
                },
                {
                    "internalType": "uint256",
                    "name": "tokenId",
                    "type": "uint256"
                }
            ],
            "name": "safeTransferFrom",
            "outputs": [],
            "stateMutability": "nonpayable",
            "type": "function"
        },
        {
            "inputs": [
                {
                    "internalType": "address",
                    "name": "from",
                    "type": "address"
                },
                {
                    "internalType": "address",
                    "name": "to",
                    "type": "address"
                },
                {
                    "internalType": "uint256",
                    "name": "tokenId",
                    "type": "uint256"
                },
                {
                    "internalType": "bytes",
                    "name": "data",
                    "type": "bytes"
                }
            ],
            "name": "safeTransferFrom",
            "outputs": [],
            "stateMutability": "nonpayable",
            "type": "function"
        },
        {
            "inputs": [
                {
                    "internalType": "address",
                    "name": "operator",
                    "type": "address"
                },
                {
                    "internalType": "bool",
                    "name": "approved",
                    "type": "bool"
                }
            ],
            "name": "setApprovalForAll",
            "outputs": [],
            "stateMutability": "nonpayable",
            "type": "function"
        },
        {
            "inputs": [
                {
                    "internalType": "uint256",
                    "name": "tokenId",
                    "type": "uint256"
                },
                {
                    "internalType": "string",
                    "name": "url",
                    "type": "string"
                }
            ],
            "name": "setUrl",
            "outputs": [],
            "stateMutability": "nonpayable",
            "type": "function"
        },
        {
            "inputs": [
                {
                    "internalType": "bytes4",
                    "name": "interfaceId",
                    "type": "bytes4"
                }
            ],
            "name": "supportsInterface",
            "outputs": [
                {
                    "internalType": "bool",
                    "name": "",
                    "type": "bool"
                }
            ],
            "stateMutability": "view",
            "type": "function"
        },
        {
            "inputs": [],
            "name": "symbol",
            "outputs": [
                {
                    "internalType": "string",
                    "name": "",
                    "type": "string"
                }
            ],
            "stateMutability": "view",
            "type": "function"
        },
        {
            "inputs": [
                {
                    "internalType": "uint256",
                    "name": "tokenId",
                    "type": "uint256"
                }
            ],
            "name": "tokenURI",
            "outputs": [
                {
                    "internalType": "string",
                    "name": "",
                    "type": "string"
                }
            ],
            "stateMutability": "view",
            "type": "function"
        },
        {
            "inputs": [
                {
                    "internalType": "address",
                    "name": "from",
                    "type": "address"
                },
                {
                    "internalType": "address",
                    "name": "to",
                    "type": "address"
                },
                {
                    "internalType": "uint256",
                    "name": "tokenId",
                    "type": "uint256"
                }
            ],
            "name": "transferFrom",
            "outputs": [],
            "stateMutability": "nonpayable",
            "type": "function"
        },
        {
            "inputs": [
                {
                    "internalType": "address",
                    "name": "newOwner",
                    "type": "address"
                }
            ],
            "name": "transferOwnership",
            "outputs": [],
            "stateMutability": "nonpayable",
            "type": "function"
        }
    ],
    "bytecode": "0x60806040523480156200001157600080fd5b506040516200312c3803806200312c833981810160405281019062000037919062000350565b33828281600090816200004b919062000620565b5080600190816200005d919062000620565b505050600073ffffffffffffffffffffffffffffffffffffffff168173ffffffffffffffffffffffffffffffffffffffff1603620000d55760006040517f1e4fbdf7000000000000000000000000000000000000000000000000000000008152600401620000cc91906200074c565b60405180910390fd5b620000e681620000f760201b60201c565b506001600881905550505062000769565b6000600760009054906101000a900473ffffffffffffffffffffffffffffffffffffffff16905081600760006101000a81548173ffffffffffffffffffffffffffffffffffffffff021916908373ffffffffffffffffffffffffffffffffffffffff1602179055508173ffffffffffffffffffffffffffffffffffffffff168173ffffffffffffffffffffffffffffffffffffffff167f8be0079c531659141344cd1fd0a4f28419497f9722a3daafe3b4186f6b6457e060405160405180910390a35050565b6000604051905090565b600080fd5b600080fd5b600080fd5b600080fd5b6000601f19601f8301169050919050565b7f4e487b7100000000000000000000000000000000000000000000000000000000600052604160045260246000fd5b6200022682620001db565b810181811067ffffffffffffffff82111715620002485762000247620001ec565b5b80604052505050565b60006200025d620001bd565b90506200026b82826200021b565b919050565b600067ffffffffffffffff8211156200028e576200028d620001ec565b5b6200029982620001db565b9050602081019050919050565b60005b83811015620002c6578082015181840152602081019050620002a9565b60008484015250505050565b6000620002e9620002e38462000270565b62000251565b905082815260208101848484011115620003085762000307620001d6565b5b62000315848285620002a6565b509392505050565b600082601f830112620003355762000334620001d1565b5b815162000347848260208601620002d2565b91505092915050565b600080604083850312156200036a5762000369620001c7565b5b600083015167ffffffffffffffff8111156200038b576200038a620001cc565b5b62000399858286016200031d565b925050602083015167ffffffffffffffff811115620003bd57620003bc620001cc565b5b620003cb858286016200031d565b9150509250929050565b600081519050919050565b7f4e487b7100000000000000000000000000000000000000000000000000000000600052602260045260246000fd5b600060028204905060018216806200042857607f821691505b6020821081036200043e576200043d620003e0565b5b50919050565b60008190508160005260206000209050919050565b60006020601f8301049050919050565b600082821b905092915050565b600060088302620004a87fffffffffffffffffffffffffffffffffffffffffffffffffffffffffffffffff8262000469565b620004b4868362000469565b95508019841693508086168417925050509392505050565b6000819050919050565b6000819050919050565b600062000501620004fb620004f584620004cc565b620004d6565b620004cc565b9050919050565b6000819050919050565b6200051d83620004e0565b620005356200052c8262000508565b84845462000476565b825550505050565b600090565b6200054c6200053d565b6200055981848462000512565b505050565b5b8181101562000581576200057560008262000542565b6001810190506200055f565b5050565b601f821115620005d0576200059a8162000444565b620005a58462000459565b81016020851015620005b5578190505b620005cd620005c48562000459565b8301826200055e565b50505b505050565b600082821c905092915050565b6000620005f560001984600802620005d5565b1980831691505092915050565b6000620006108383620005e2565b9150826002028217905092915050565b6200062b82620003d5565b67ffffffffffffffff811115620006475762000646620001ec565b5b6200065382546200040f565b6200066082828562000585565b600060209050601f83116001811462000698576000841562000683578287015190505b6200068f858262000602565b865550620006ff565b601f198416620006a88662000444565b60005b82811015620006d257848901518255600182019150602085019450602081019050620006ab565b86831015620006f25784890151620006ee601f891682620005e2565b8355505b6001600288020188555050505b505050505050565b600073ffffffffffffffffffffffffffffffffffffffff82169050919050565b6000620007348262000707565b9050919050565b620007468162000727565b82525050565b60006020820190506200076360008301846200073b565b92915050565b6129b380620007796000396000f3fe608060405234801561001057600080fd5b50600436106101215760003560e01c8063715018a6116100ad578063b88d4fde11610071578063b88d4fde146102f4578063c87b56dd14610310578063d0def52114610340578063e985e9c51461035c578063f2fde38b1461038c57610121565b8063715018a6146102765780638da5cb5b1461028057806395d89b411461029e578063a22cb465146102bc578063aef95098146102d857610121565b806323b872dd116100f457806323b872dd146101c057806342842e0e146101dc57806356189236146101f85780636352211e1461021657806370a082311461024657610121565b806301ffc9a71461012657806306fdde0314610156578063081812fc14610174578063095ea7b3146101a4575b600080fd5b610140600480360381019061013b9190611c8b565b6103a8565b60405161014d9190611cd3565b60405180910390f35b61015e6103ba565b60405161016b9190611d7e565b60405180910390f35b61018e60048036038101906101899190611dd6565b61044c565b60405161019b9190611e44565b60405180910390f35b6101be60048036038101906101b99190611e8b565b610468565b005b6101da60048036038101906101d59190611ecb565b61047e565b005b6101f660048036038101906101f19190611ecb565b610580565b005b6102006105a0565b60405161020d9190611f2d565b60405180910390f35b610230600480360381019061022b9190611dd6565b6105aa565b60405161023d9190611e44565b60405180910390f35b610260600480360381019061025b9190611f48565b6105bc565b60405161026d9190611f2d565b60405180910390f35b61027e610676565b005b61028861068a565b6040516102959190611e44565b60405180910390f35b6102a66106b4565b6040516102b39190611d7e565b60405180910390f35b6102d660048036038101906102d19190611fa1565b610746565b005b6102f260048036038101906102ed9190612116565b61075c565b005b61030e60048036038101906103099190612213565b6107f2565b005b61032a60048036038101906103259190611dd6565b61080f565b6040516103379190611d7e565b60405180910390f35b61035a60048036038101906103559190612296565b610869565b005b610376600480360381019061037191906122f2565b6108e1565b6040516103839190611cd3565b60405180910390f35b6103a660048036038101906103a19190611f48565b610975565b005b60006103b3826109fb565b9050919050565b6060600080546103c990612361565b80601f01602080910402602001604051908101604052809291908181526020018280546103f590612361565b80156104425780601f1061041757610100808354040283529160200191610442565b820191906000526020600020905b81548152906001019060200180831161042557829003601f168201915b5050505050905090565b600061045782610a5c565b5061046182610ae4565b9050919050565b61047a8282610475610b21565b610b29565b5050565b600073ffffffffffffffffffffffffffffffffffffffff168273ffffffffffffffffffffffffffffffffffffffff16036104f05760006040517f64a0ae920000000000000000000000000000000000000000000000000000000081526004016104e79190611e44565b60405180910390fd5b600061050483836104ff610b21565b610b3b565b90508373ffffffffffffffffffffffffffffffffffffffff168173ffffffffffffffffffffffffffffffffffffffff161461057a578382826040517f64283d7b00000000000000000000000000000000000000000000000000000000815260040161057193929190612392565b60405180910390fd5b50505050565b61059b838383604051806020016040528060008152506107f2565b505050565b6000600854905090565b60006105b582610a5c565b9050919050565b60008073ffffffffffffffffffffffffffffffffffffffff168273ffffffffffffffffffffffffffffffffffffffff160361062f5760006040517f89c62b640000000000000000000000000000000000000000000000000000000081526004016106269190611e44565b60405180910390fd5b600360008373ffffffffffffffffffffffffffffffffffffffff1673ffffffffffffffffffffffffffffffffffffffff168152602001908152602001600020549050919050565b61067e610d55565b6106886000610ddc565b565b6000600760009054906101000a900473ffffffffffffffffffffffffffffffffffffffff16905090565b6060600180546106c390612361565b80601f01602080910402602001604051908101604052809291908181526020018280546106ef90612361565b801561073c5780601f106107115761010080835404028352916020019161073c565b820191906000526020600020905b81548152906001019060200180831161071f57829003601f168201915b5050505050905090565b610758610751610b21565b8383610ea2565b5050565b610764610d55565b61076d82611011565b6107ac576040517f08c379a00000000000000000000000000000000000000000000000000000000081526004016107a39061243b565b60405180910390fd5b6107b68282611052565b817fa8307a7548d7e5f377e0fb6b0b19afc9d31f4e4f7f3c130f1e306d81f54dc6e4826040516107e69190611d7e565b60405180910390a25050565b6107fd84848461047e565b610809848484846110ae565b50505050565b606061081a82611011565b610859576040517f08c379a0000000000000000000000000000000000000000000000000000000008152600401610850906124cd565b60405180910390fd5b61086282611265565b9050919050565b610871610d55565b600060085490506008600081548092919061088b9061251c565b919050555061089a8382611378565b6108a48183611052565b807fa8307a7548d7e5f377e0fb6b0b19afc9d31f4e4f7f3c130f1e306d81f54dc6e4836040516108d49190611d7e565b60405180910390a2505050565b6000600560008473ffffffffffffffffffffffffffffffffffffffff1673ffffffffffffffffffffffffffffffffffffffff16815260200190815260200160002060008373ffffffffffffffffffffffffffffffffffffffff1673ffffffffffffffffffffffffffffffffffffffff16815260200190815260200160002060009054906101000a900460ff16905092915050565b61097d610d55565b600073ffffffffffffffffffffffffffffffffffffffff168173ffffffffffffffffffffffffffffffffffffffff16036109ef5760006040517f1e4fbdf70000000000000000000000000000000000000000000000000000000081526004016109e69190611e44565b60405180910390fd5b6109f881610ddc565b50565b6000634906490660e01b7bffffffffffffffffffffffffffffffffffffffffffffffffffffffff1916827bffffffffffffffffffffffffffffffffffffffffffffffffffffffff19161480610a555750610a5482611396565b5b9050919050565b600080610a6883611478565b9050600073ffffffffffffffffffffffffffffffffffffffff168173ffffffffffffffffffffffffffffffffffffffff1603610adb57826040517f7e273289000000000000000000000000000000000000000000000000000000008152600401610ad29190611f2d565b60405180910390fd5b80915050919050565b60006004600083815260200190815260200160002060009054906101000a900473ffffffffffffffffffffffffffffffffffffffff169050919050565b600033905090565b610b3683838360016114b5565b505050565b600080610b4784611478565b9050600073ffffffffffffffffffffffffffffffffffffffff168373ffffffffffffffffffffffffffffffffffffffff1614610b8957610b8881848661167a565b5b600073ffffffffffffffffffffffffffffffffffffffff168173ffffffffffffffffffffffffffffffffffffffff1614610c1a57610bcb6000856000806114b5565b6001600360008373ffffffffffffffffffffffffffffffffffffffff1673ffffffffffffffffffffffffffffffffffffffff168152602001908152602001600020600082825403925050819055505b600073ffffffffffffffffffffffffffffffffffffffff168573ffffffffffffffffffffffffffffffffffffffff1614610c9d576001600360008773ffffffffffffffffffffffffffffffffffffffff1673ffffffffffffffffffffffffffffffffffffffff168152602001908152602001600020600082825401925050819055505b846002600086815260200190815260200160002060006101000a81548173ffffffffffffffffffffffffffffffffffffffff021916908373ffffffffffffffffffffffffffffffffffffffff160217905550838573ffffffffffffffffffffffffffffffffffffffff168273ffffffffffffffffffffffffffffffffffffffff167fddf252ad1be2c89b69c2b068fc378daa952ba7f163c4a11628f55a4df523b3ef60405160405180910390a4809150509392505050565b610d5d610b21565b73ffffffffffffffffffffffffffffffffffffffff16610d7b61068a565b73ffffffffffffffffffffffffffffffffffffffff1614610dda57610d9e610b21565b6040517f118cdaa7000000000000000000000000000000000000000000000000000000008152600401610dd19190611e44565b60405180910390fd5b565b6000600760009054906101000a900473ffffffffffffffffffffffffffffffffffffffff16905081600760006101000a81548173ffffffffffffffffffffffffffffffffffffffff021916908373ffffffffffffffffffffffffffffffffffffffff1602179055508173ffffffffffffffffffffffffffffffffffffffff168173ffffffffffffffffffffffffffffffffffffffff167f8be0079c531659141344cd1fd0a4f28419497f9722a3daafe3b4186f6b6457e060405160405180910390a35050565b600073ffffffffffffffffffffffffffffffffffffffff168273ffffffffffffffffffffffffffffffffffffffff1603610f1357816040517f5b08ba18000000000000000000000000000000000000000000000000000000008152600401610f0a9190611e44565b60405180910390fd5b80600560008573ffffffffffffffffffffffffffffffffffffffff1673ffffffffffffffffffffffffffffffffffffffff16815260200190815260200160002060008473ffffffffffffffffffffffffffffffffffffffff1673ffffffffffffffffffffffffffffffffffffffff16815260200190815260200160002060006101000a81548160ff0219169083151502179055508173ffffffffffffffffffffffffffffffffffffffff168373ffffffffffffffffffffffffffffffffffffffff167f17307eab39ab6107e8899845ad3d59bd9653f200f220920489ca2b5937696c31836040516110049190611cd3565b60405180910390a3505050565b60008073ffffffffffffffffffffffffffffffffffffffff1661103383611478565b73ffffffffffffffffffffffffffffffffffffffff1614159050919050565b806006600084815260200190815260200160002090816110729190612710565b507ff8e1a15aba9398e019f0b49df1a4fde98ee17ae345cb5f6b5e2c27f5033e8ce7826040516110a29190611f2d565b60405180910390a15050565b60008373ffffffffffffffffffffffffffffffffffffffff163b111561125f578273ffffffffffffffffffffffffffffffffffffffff1663150b7a026110f2610b21565b8685856040518563ffffffff1660e01b81526004016111149493929190612837565b6020604051808303816000875af192505050801561115057506040513d601f19601f8201168201806040525081019061114d9190612898565b60015b6111d4573d8060008114611180576040519150601f19603f3d011682016040523d82523d6000602084013e611185565b606091505b5060008151036111cc57836040517f64a0ae920000000000000000000000000000000000000000000000000000000081526004016111c39190611e44565b60405180910390fd5b805181602001fd5b63150b7a0260e01b7bffffffffffffffffffffffffffffffffffffffffffffffffffffffff1916817bffffffffffffffffffffffffffffffffffffffffffffffffffffffff19161461125d57836040517f64a0ae920000000000000000000000000000000000000000000000000000000081526004016112549190611e44565b60405180910390fd5b505b50505050565b606061127082610a5c565b50600060066000848152602001908152602001600020805461129190612361565b80601f01602080910402602001604051908101604052809291908181526020018280546112bd90612361565b801561130a5780601f106112df5761010080835404028352916020019161130a565b820191906000526020600020905b8154815290600101906020018083116112ed57829003601f168201915b50505050509050600061131b61173e565b90506000815103611330578192505050611373565b60008251111561136557808260405160200161134d929190612901565b60405160208183030381529060405292505050611373565b61136e84611755565b925050505b919050565b6113928282604051806020016040528060008152506117be565b5050565b60007f80ac58cd000000000000000000000000000000000000000000000000000000007bffffffffffffffffffffffffffffffffffffffffffffffffffffffff1916827bffffffffffffffffffffffffffffffffffffffffffffffffffffffff1916148061146157507f5b5e139f000000000000000000000000000000000000000000000000000000007bffffffffffffffffffffffffffffffffffffffffffffffffffffffff1916827bffffffffffffffffffffffffffffffffffffffffffffffffffffffff1916145b806114715750611470826117da565b5b9050919050565b60006002600083815260200190815260200160002060009054906101000a900473ffffffffffffffffffffffffffffffffffffffff169050919050565b80806114ee5750600073ffffffffffffffffffffffffffffffffffffffff168273ffffffffffffffffffffffffffffffffffffffff1614155b156116225760006114fe84610a5c565b9050600073ffffffffffffffffffffffffffffffffffffffff168373ffffffffffffffffffffffffffffffffffffffff161415801561156957508273ffffffffffffffffffffffffffffffffffffffff168173ffffffffffffffffffffffffffffffffffffffff1614155b801561157c575061157a81846108e1565b155b156115be57826040517fa9fbf51f0000000000000000000000000000000000000000000000000000000081526004016115b59190611e44565b60405180910390fd5b811561162057838573ffffffffffffffffffffffffffffffffffffffff168273ffffffffffffffffffffffffffffffffffffffff167f8c5be1e5ebec7d5bd14f71427d1e84f3dd0314c0f7b2291e5b200ac8c7c3b92560405160405180910390a45b505b836004600085815260200190815260200160002060006101000a81548173ffffffffffffffffffffffffffffffffffffffff021916908373ffffffffffffffffffffffffffffffffffffffff16021790555050505050565b611685838383611844565b61173957600073ffffffffffffffffffffffffffffffffffffffff168373ffffffffffffffffffffffffffffffffffffffff16036116fa57806040517f7e2732890000000000000000000000000000000000000000000000000000000081526004016116f19190611f2d565b60405180910390fd5b81816040517f177e802f000000000000000000000000000000000000000000000000000000008152600401611730929190612925565b60405180910390fd5b505050565b606060405180602001604052806000815250905090565b606061176082610a5c565b50600061176b61173e565b9050600081511161178b57604051806020016040528060008152506117b6565b8061179584611905565b6040516020016117a6929190612901565b6040516020818303038152906040525b915050919050565b6117c883836119d3565b6117d560008484846110ae565b505050565b60007f01ffc9a7000000000000000000000000000000000000000000000000000000007bffffffffffffffffffffffffffffffffffffffffffffffffffffffff1916827bffffffffffffffffffffffffffffffffffffffffffffffffffffffff1916149050919050565b60008073ffffffffffffffffffffffffffffffffffffffff168373ffffffffffffffffffffffffffffffffffffffff16141580156118fc57508273ffffffffffffffffffffffffffffffffffffffff168473ffffffffffffffffffffffffffffffffffffffff1614806118bd57506118bc84846108e1565b5b806118fb57508273ffffffffffffffffffffffffffffffffffffffff166118e383610ae4565b73ffffffffffffffffffffffffffffffffffffffff16145b5b90509392505050565b60606000600161191484611acc565b01905060008167ffffffffffffffff81111561193357611932611feb565b5b6040519080825280601f01601f1916602001820160405280156119655781602001600182028036833780820191505090505b509050600082602001820190505b6001156119c8578080600190039150507f3031323334353637383961626364656600000000000000000000000000000000600a86061a8153600a85816119bc576119bb61294e565b5b04945060008503611973575b819350505050919050565b600073ffffffffffffffffffffffffffffffffffffffff168273ffffffffffffffffffffffffffffffffffffffff1603611a455760006040517f64a0ae92000000000000000000000000000000000000000000000000000000008152600401611a3c9190611e44565b60405180910390fd5b6000611a5383836000610b3b565b9050600073ffffffffffffffffffffffffffffffffffffffff168173ffffffffffffffffffffffffffffffffffffffff1614611ac75760006040517f73c6ac6e000000000000000000000000000000000000000000000000000000008152600401611abe9190611e44565b60405180910390fd5b505050565b600080600090507a184f03e93ff9f4daa797ed6e38ed64bf6a1f0100000000000000008310611b2a577a184f03e93ff9f4daa797ed6e38ed64bf6a1f0100000000000000008381611b2057611b1f61294e565b5b0492506040810190505b6d04ee2d6d415b85acef81000000008310611b67576d04ee2d6d415b85acef81000000008381611b5d57611b5c61294e565b5b0492506020810190505b662386f26fc100008310611b9657662386f26fc100008381611b8c57611b8b61294e565b5b0492506010810190505b6305f5e1008310611bbf576305f5e1008381611bb557611bb461294e565b5b0492506008810190505b6127108310611be4576127108381611bda57611bd961294e565b5b0492506004810190505b60648310611c075760648381611bfd57611bfc61294e565b5b0492506002810190505b600a8310611c16576001810190505b80915050919050565b6000604051905090565b600080fd5b600080fd5b60007fffffffff0000000000000000000000000000000000000000000000000000000082169050919050565b611c6881611c33565b8114611c7357600080fd5b50565b600081359050611c8581611c5f565b92915050565b600060208284031215611ca157611ca0611c29565b5b6000611caf84828501611c76565b91505092915050565b60008115159050919050565b611ccd81611cb8565b82525050565b6000602082019050611ce86000830184611cc4565b92915050565b600081519050919050565b600082825260208201905092915050565b60005b83811015611d28578082015181840152602081019050611d0d565b60008484015250505050565b6000601f19601f8301169050919050565b6000611d5082611cee565b611d5a8185611cf9565b9350611d6a818560208601611d0a565b611d7381611d34565b840191505092915050565b60006020820190508181036000830152611d988184611d45565b905092915050565b6000819050919050565b611db381611da0565b8114611dbe57600080fd5b50565b600081359050611dd081611daa565b92915050565b600060208284031215611dec57611deb611c29565b5b6000611dfa84828501611dc1565b91505092915050565b600073ffffffffffffffffffffffffffffffffffffffff82169050919050565b6000611e2e82611e03565b9050919050565b611e3e81611e23565b82525050565b6000602082019050611e596000830184611e35565b92915050565b611e6881611e23565b8114611e7357600080fd5b50565b600081359050611e8581611e5f565b92915050565b60008060408385031215611ea257611ea1611c29565b5b6000611eb085828601611e76565b9250506020611ec185828601611dc1565b9150509250929050565b600080600060608486031215611ee457611ee3611c29565b5b6000611ef286828701611e76565b9350506020611f0386828701611e76565b9250506040611f1486828701611dc1565b9150509250925092565b611f2781611da0565b82525050565b6000602082019050611f426000830184611f1e565b92915050565b600060208284031215611f5e57611f5d611c29565b5b6000611f6c84828501611e76565b91505092915050565b611f7e81611cb8565b8114611f8957600080fd5b50565b600081359050611f9b81611f75565b92915050565b60008060408385031215611fb857611fb7611c29565b5b6000611fc685828601611e76565b9250506020611fd785828601611f8c565b9150509250929050565b600080fd5b600080fd5b7f4e487b7100000000000000000000000000000000000000000000000000000000600052604160045260246000fd5b61202382611d34565b810181811067ffffffffffffffff8211171561204257612041611feb565b5b80604052505050565b6000612055611c1f565b9050612061828261201a565b919050565b600067ffffffffffffffff82111561208157612080611feb565b5b61208a82611d34565b9050602081019050919050565b82818337600083830152505050565b60006120b96120b484612066565b61204b565b9050828152602081018484840111156120d5576120d4611fe6565b5b6120e0848285612097565b509392505050565b600082601f8301126120fd576120fc611fe1565b5b813561210d8482602086016120a6565b91505092915050565b6000806040838503121561212d5761212c611c29565b5b600061213b85828601611dc1565b925050602083013567ffffffffffffffff81111561215c5761215b611c2e565b5b612168858286016120e8565b9150509250929050565b600067ffffffffffffffff82111561218d5761218c611feb565b5b61219682611d34565b9050602081019050919050565b60006121b66121b184612172565b61204b565b9050828152602081018484840111156121d2576121d1611fe6565b5b6121dd848285612097565b509392505050565b600082601f8301126121fa576121f9611fe1565b5b813561220a8482602086016121a3565b91505092915050565b6000806000806080858703121561222d5761222c611c29565b5b600061223b87828801611e76565b945050602061224c87828801611e76565b935050604061225d87828801611dc1565b925050606085013567ffffffffffffffff81111561227e5761227d611c2e565b5b61228a878288016121e5565b91505092959194509250565b600080604083850312156122ad576122ac611c29565b5b60006122bb85828601611e76565b925050602083013567ffffffffffffffff8111156122dc576122db611c2e565b5b6122e8858286016120e8565b9150509250929050565b6000806040838503121561230957612308611c29565b5b600061231785828601611e76565b925050602061232885828601611e76565b9150509250929050565b7f4e487b7100000000000000000000000000000000000000000000000000000000600052602260045260246000fd5b6000600282049050600182168061237957607f821691505b60208210810361238c5761238b612332565b5b50919050565b60006060820190506123a76000830186611e35565b6123b46020830185611f1e565b6123c16040830184611e35565b949350505050565b7f527761546f6b656e3a2055524c20736574206f66206e6f6e6578697374656e7460008201527f20746f6b656e0000000000000000000000000000000000000000000000000000602082015250565b6000612425602683611cf9565b9150612430826123c9565b604082019050919050565b6000602082019050818103600083015261245481612418565b9050919050565b7f527761546f6b656e3a2055524c20717565727920666f72206e6f6e657869737460008201527f656e7420746f6b656e0000000000000000000000000000000000000000000000602082015250565b60006124b7602983611cf9565b91506124c28261245b565b604082019050919050565b600060208201905081810360008301526124e6816124aa565b9050919050565b7f4e487b7100000000000000000000000000000000000000000000000000000000600052601160045260246000fd5b600061252782611da0565b91507fffffffffffffffffffffffffffffffffffffffffffffffffffffffffffffffff8203612559576125586124ed565b5b600182019050919050565b60008190508160005260206000209050919050565b60006020601f8301049050919050565b600082821b905092915050565b6000600883026125c67fffffffffffffffffffffffffffffffffffffffffffffffffffffffffffffffff82612589565b6125d08683612589565b95508019841693508086168417925050509392505050565b6000819050919050565b600061260d61260861260384611da0565b6125e8565b611da0565b9050919050565b6000819050919050565b612627836125f2565b61263b61263382612614565b848454612596565b825550505050565b600090565b612650612643565b61265b81848461261e565b505050565b5b8181101561267f57612674600082612648565b600181019050612661565b5050565b601f8211156126c45761269581612564565b61269e84612579565b810160208510156126ad578190505b6126c16126b985612579565b830182612660565b50505b505050565b600082821c905092915050565b60006126e7600019846008026126c9565b1980831691505092915050565b600061270083836126d6565b9150826002028217905092915050565b61271982611cee565b67ffffffffffffffff81111561273257612731611feb565b5b61273c8254612361565b612747828285612683565b600060209050601f83116001811461277a5760008415612768578287015190505b61277285826126f4565b8655506127da565b601f19841661278886612564565b60005b828110156127b05784890151825560018201915060208501945060208101905061278b565b868310156127cd57848901516127c9601f8916826126d6565b8355505b6001600288020188555050505b505050505050565b600081519050919050565b600082825260208201905092915050565b6000612809826127e2565b61281381856127ed565b9350612823818560208601611d0a565b61282c81611d34565b840191505092915050565b600060808201905061284c6000830187611e35565b6128596020830186611e35565b6128666040830185611f1e565b818103606083015261287881846127fe565b905095945050505050565b60008151905061289281611c5f565b92915050565b6000602082840312156128ae576128ad611c29565b5b60006128bc84828501612883565b91505092915050565b600081905092915050565b60006128db82611cee565b6128e581856128c5565b93506128f5818560208601611d0a565b80840191505092915050565b600061290d82856128d0565b915061291982846128d0565b91508190509392505050565b600060408201905061293a6000830185611e35565b6129476020830184611f1e565b9392505050565b7f4e487b7100000000000000000000000000000000000000000000000000000000600052601260045260246000fdfea2646970667358221220243390a98ce5fd83d4bb60f9bc715a9164fa1b3a81dd54447e6ec59856ffb6cc64736f6c63430008180033",
    "linkReferences": {},
    "deployedLinkReferences": {}
}