{
    "_format": "hh-sol-artifact-1",
    "contractName": "RwaValuation",
    "sourceName": "contracts/RwaValuation.sol",
    "abi": [
        {
            "inputs": [
                {
                    "internalType": "address[]",
                    "name": "_validators",
                    "type": "address[]"
                },
                {
                    "internalType": "address",
                    "name": "_admin",
                    "type": "address"
                }
            ],
            "stateMutability": "nonpayable",
            "type": "constructor"
        },
        {
            "anonymous": false,
            "inputs": [
                {
                    "indexed": true,
                    "internalType": "address",
                    "name": "rwaToken",
                    "type": "address"
                },
                {
                    "indexed": true,
                    "internalType": "uint256",
                    "name": "nftId",
                    "type": "uint256"
                },
                {
                    "indexed": true,
                    "internalType": "address",
                    "name": "validator",
                    "type": "address"
                },
                {
                    "indexed": false,
                    "internalType": "string",
                    "name": "valuation",
                    "type": "string"
                }
            ],
            "name": "Evaluated",
            "type": "event"
        },
        {
            "anonymous": false,
            "inputs": [
                {
                    "indexed": true,
                    "internalType": "address",
                    "name": "rwaToken",
                    "type": "address"
                },
                {
                    "indexed": true,
                    "internalType": "uint256",
                    "name": "nftId",
                    "type": "uint256"
                }
            ],
            "name": "FinishEvaluated",
            "type": "event"
        },
        {
            "anonymous": false,
            "inputs": [
                {
                    "indexed": true,
                    "internalType": "address",
                    "name": "rwaToken",
                    "type": "address"
                },
                {
                    "indexed": true,
                    "internalType": "uint256",
                    "name": "nftId",
                    "type": "uint256"
                },
                {
                    "indexed": false,
                    "internalType": "uint256",
                    "name": "valuation",
                    "type": "uint256"
                }
            ],
            "name": "RwaEvaluated",
            "type": "event"
        },
        {
            "anonymous": false,
            "inputs": [
                {
                    "indexed": true,
                    "internalType": "address",
                    "name": "rwaToken",
                    "type": "address"
                },
                {
                    "indexed": true,
                    "internalType": "uint256",
                    "name": "nftId",
                    "type": "uint256"
                }
            ],
            "name": "SetupRwaToEvaluate",
            "type": "event"
        },
        {
            "inputs": [
                {
                    "internalType": "address",
                    "name": "newValidator",
                    "type": "address"
                }
            ],
            "name": "addValidator",
            "outputs": [],
            "stateMutability": "nonpayable",
            "type": "function"
        },
        {
            "inputs": [],
            "name": "admin",
            "outputs": [
                {
                    "internalType": "address",
                    "name": "",
                    "type": "address"
                }
            ],
            "stateMutability": "view",
            "type": "function"
        },
        {
            "inputs": [
                {
                    "internalType": "uint256",
                    "name": "nftId",
                    "type": "uint256"
                },
                {
                    "internalType": "address",
                    "name": "rwaToken",
                    "type": "address"
                }
            ],
            "name": "calculateRatings",
            "outputs": [],
            "stateMutability": "nonpayable",
            "type": "function"
        },
        {
            "inputs": [
                {
                    "internalType": "uint256",
                    "name": "nftId",
                    "type": "uint256"
                },
                {
                    "internalType": "string",
                    "name": "encodedValuation",
                    "type": "string"
                },
                {
                    "internalType": "address",
                    "name": "rwaToken",
                    "type": "address"
                }
            ],
            "name": "evaluateRwa",
            "outputs": [],
            "stateMutability": "nonpayable",
            "type": "function"
        },
        {
            "inputs": [
                {
                    "internalType": "uint256",
                    "name": "nftId",
                    "type": "uint256"
                },
                {
                    "internalType": "address",
                    "name": "rwaToken",
                    "type": "address"
                }
            ],
            "name": "getAverageValuation",
            "outputs": [
                {
                    "internalType": "uint256",
                    "name": "",
                    "type": "uint256"
                }
            ],
            "stateMutability": "view",
            "type": "function"
        },
        {
            "inputs": [
                {
                    "internalType": "uint256",
                    "name": "nftId",
                    "type": "uint256"
                },
                {
                    "internalType": "address",
                    "name": "validator",
                    "type": "address"
                },
                {
                    "internalType": "address",
                    "name": "rwaToken",
                    "type": "address"
                }
            ],
            "name": "getDecodedValuation",
            "outputs": [
                {
                    "internalType": "uint256",
                    "name": "",
                    "type": "uint256"
                }
            ],
            "stateMutability": "view",
            "type": "function"
        },
        {
            "inputs": [
                {
                    "internalType": "uint256",
                    "name": "nftId",
                    "type": "uint256"
                },
                {
                    "internalType": "address",
                    "name": "validator",
                    "type": "address"
                },
                {
                    "internalType": "address",
                    "name": "rwaToken",
                    "type": "address"
                }
            ],
            "name": "getEncodedValuation",
            "outputs": [
                {
                    "internalType": "string",
                    "name": "",
                    "type": "string"
                }
            ],
            "stateMutability": "view",
            "type": "function"
        },
        {
            "inputs": [
                {
                    "internalType": "address",
                    "name": "validator",
                    "type": "address"
                }
            ],
            "name": "getValidatorRating",
            "outputs": [
                {
                    "internalType": "uint256",
                    "name": "",
                    "type": "uint256"
                }
            ],
            "stateMutability": "view",
            "type": "function"
        },
        {
            "inputs": [],
            "name": "getValidators",
            "outputs": [
                {
                    "internalType": "address[]",
                    "name": "",
                    "type": "address[]"
                }
            ],
            "stateMutability": "view",
            "type": "function"
        },
        {
            "inputs": [
                {
                    "internalType": "uint256",
                    "name": "nftId",
                    "type": "uint256"
                },
                {
                    "internalType": "address",
                    "name": "rwaToken",
                    "type": "address"
                }
            ],
            "name": "getValuation",
            "outputs": [
                {
                    "internalType": "string",
                    "name": "",
                    "type": "string"
                },
                {
                    "internalType": "string",
                    "name": "",
                    "type": "string"
                },
                {
                    "internalType": "uint256",
                    "name": "",
                    "type": "uint256"
                },
                {
                    "internalType": "bool",
                    "name": "",
                    "type": "bool"
                },
                {
                    "internalType": "address[]",
                    "name": "",
                    "type": "address[]"
                },
                {
                    "internalType": "address",
                    "name": "",
                    "type": "address"
                }
            ],
            "stateMutability": "view",
            "type": "function"
        },
        {
            "inputs": [
                {
                    "internalType": "uint256",
                    "name": "nftId",
                    "type": "uint256"
                },
                {
                    "internalType": "address",
                    "name": "validator",
                    "type": "address"
                },
                {
                    "internalType": "address",
                    "name": "rwaToken",
                    "type": "address"
                }
            ],
            "name": "hasEvaluated",
            "outputs": [
                {
                    "internalType": "bool",
                    "name": "",
                    "type": "bool"
                }
            ],
            "stateMutability": "view",
            "type": "function"
        },
        {
            "inputs": [
                {
                    "internalType": "address",
                    "name": "",
                    "type": "address"
                }
            ],
            "name": "isValidator",
            "outputs": [
                {
                    "internalType": "bool",
                    "name": "",
                    "type": "bool"
                }
            ],
            "stateMutability": "view",
            "type": "function"
        },
        {
            "inputs": [
                {
                    "internalType": "address",
                    "name": "validatorToRemove",
                    "type": "address"
                }
            ],
            "name": "removeValidator",
            "outputs": [],
            "stateMutability": "nonpayable",
            "type": "function"
        },
        {
            "inputs": [
                {
                    "internalType": "address",
                    "name": "",
                    "type": "address"
                },
                {
                    "internalType": "uint256",
                    "name": "",
                    "type": "uint256"
                }
            ],
            "name": "rwaInfo",
            "outputs": [
                {
                    "internalType": "address",
                    "name": "rwaToken",
                    "type": "address"
                },
                {
                    "internalType": "uint256",
                    "name": "nftId",
                    "type": "uint256"
                },
                {
                    "internalType": "string",
                    "name": "publicKeyToValuate",
                    "type": "string"
                },
                {
                    "internalType": "string",
                    "name": "privateKeyToValuate",
                    "type": "string"
                },
                {
                    "internalType": "uint256",
                    "name": "finalValuation",
                    "type": "uint256"
                },
                {
                    "internalType": "bool",
                    "name": "finishedValuation",
                    "type": "bool"
                }
            ],
            "stateMutability": "view",
            "type": "function"
        },
        {
            "inputs": [
                {
                    "internalType": "uint256",
                    "name": "nftId",
                    "type": "uint256"
                },
                {
                    "internalType": "address[]",
                    "name": "rwaValidators",
                    "type": "address[]"
                },
                {
                    "internalType": "uint256[]",
                    "name": "decodedValuations",
                    "type": "uint256[]"
                },
                {
                    "internalType": "string",
                    "name": "privateKey",
                    "type": "string"
                },
                {
                    "internalType": "address",
                    "name": "rwaToken",
                    "type": "address"
                }
            ],
            "name": "setDecodedValuation",
            "outputs": [],
            "stateMutability": "nonpayable",
            "type": "function"
        },
        {
            "inputs": [
                {
                    "internalType": "uint256",
                    "name": "nftId",
                    "type": "uint256"
                },
                {
                    "internalType": "string",
                    "name": "publicKeyToValuate",
                    "type": "string"
                },
                {
                    "internalType": "address",
                    "name": "rwaToken",
                    "type": "address"
                }
            ],
            "name": "setUpRwaToValuate",
            "outputs": [],
            "stateMutability": "nonpayable",
            "type": "function"
        },
        {
            "inputs": [
                {
                    "internalType": "address",
                    "name": "newAdmin",
                    "type": "address"
                }
            ],
            "name": "setupNewAdmin",
            "outputs": [],
            "stateMutability": "nonpayable",
            "type": "function"
        },
        {
            "inputs": [
                {
                    "internalType": "address",
                    "name": "",
                    "type": "address"
                }
            ],
            "name": "validatorRatings",
            "outputs": [
                {
                    "internalType": "uint256",
                    "name": "",
                    "type": "uint256"
                }
            ],
            "stateMutability": "view",
            "type": "function"
        },
        {
            "inputs": [
                {
                    "internalType": "uint256",
                    "name": "",
                    "type": "uint256"
                }
            ],
            "name": "validators",
            "outputs": [
                {
                    "internalType": "address",
                    "name": "",
                    "type": "address"
                }
            ],
            "stateMutability": "view",
            "type": "function"
        }
    ],
    "bytecode": "0x60806040523480156200001157600080fd5b5060405162003fed38038062003fed83398181016040528101906200003791906200037f565b80600460006101000a81548173ffffffffffffffffffffffffffffffffffffffff021916908373ffffffffffffffffffffffffffffffffffffffff16021790555060005b8251811015620001885760038382815181106200009d576200009c620003e5565b5b60200260200101519080600181540180825580915050600190039060005260206000200160009091909190916101000a81548173ffffffffffffffffffffffffffffffffffffffff021916908373ffffffffffffffffffffffffffffffffffffffff160217905550600160026000858481518110620001215762000120620003e5565b5b602002602001015173ffffffffffffffffffffffffffffffffffffffff1673ffffffffffffffffffffffffffffffffffffffff16815260200190815260200160002060006101000a81548160ff02191690831515021790555080806001019150506200007b565b50505062000414565b6000604051905090565b600080fd5b600080fd5b600080fd5b6000601f19601f8301169050919050565b7f4e487b7100000000000000000000000000000000000000000000000000000000600052604160045260246000fd5b620001f582620001aa565b810181811067ffffffffffffffff82111715620002175762000216620001bb565b5b80604052505050565b60006200022c62000191565b90506200023a8282620001ea565b919050565b600067ffffffffffffffff8211156200025d576200025c620001bb565b5b602082029050602081019050919050565b600080fd5b600073ffffffffffffffffffffffffffffffffffffffff82169050919050565b6000620002a08262000273565b9050919050565b620002b28162000293565b8114620002be57600080fd5b50565b600081519050620002d281620002a7565b92915050565b6000620002ef620002e9846200023f565b62000220565b905080838252602082019050602084028301858111156200031557620003146200026e565b5b835b818110156200034257806200032d8882620002c1565b84526020840193505060208101905062000317565b5050509392505050565b600082601f830112620003645762000363620001a5565b5b815162000376848260208601620002d8565b91505092915050565b600080604083850312156200039957620003986200019b565b5b600083015167ffffffffffffffff811115620003ba57620003b9620001a0565b5b620003c8858286016200034c565b9250506020620003db85828601620002c1565b9150509250929050565b7f4e487b7100000000000000000000000000000000000000000000000000000000600052603260045260246000fd5b613bc980620004246000396000f3fe608060405234801561001057600080fd5b50600436106101215760003560e01c8063aafe86af116100ad578063f60f562511610071578063f60f562514610341578063f851a44014610376578063fac9bab414610394578063facd743b146103c4578063fd2da705146103f457610121565b8063aafe86af14610277578063ad4412ca146102a7578063b79fd637146102d7578063b7ab4db5146102f3578063e81a03261461031157610121565b806340a141ff116100f457806340a141ff146101be5780634d238c8e146101da57806357034ece146101f657806361a44663146102125780636c5e10de1461024757610121565b80631497c22c1461012657806321fa3b511461014257806335aa2e441461015e5780633c593a091461018e575b600080fd5b610140600480360381019061013b9190612b19565b610410565b005b61015c60048036038101906101579190612b19565b6107e8565b005b61017860048036038101906101739190612b88565b610b7c565b6040516101859190612bc4565b60405180910390f35b6101a860048036038101906101a39190612bdf565b610bbb565b6040516101b59190612c41565b60405180910390f35b6101d860048036038101906101d39190612c5c565b610c56565b005b6101f460048036038101906101ef9190612c5c565b610f54565b005b610210600480360381019061020b9190612e14565b61112f565b005b61022c60048036038101906102279190612ee3565b61134c565b60405161023e96959493929190612fbd565b60405180910390f35b610261600480360381019061025c919061302c565b6114d2565b60405161026e9190612c41565b60405180910390f35b610291600480360381019061028c9190612bdf565b6116d1565b60405161029e919061306c565b60405180910390f35b6102c160048036038101906102bc9190612c5c565b6117f4565b6040516102ce9190612c41565b60405180910390f35b6102f160048036038101906102ec919061302c565b61183d565b005b6102fb612084565b604051610308919061314c565b60405180910390f35b61032b60048036038101906103269190612c5c565b612112565b6040516103389190612c41565b60405180910390f35b61035b6004803603810190610356919061302c565b61212a565b60405161036d9695949392919061316e565b60405180910390f35b61037e612385565b60405161038b9190612bc4565b60405180910390f35b6103ae60048036038101906103a99190612bdf565b6123ab565b6040516103bb91906131e4565b60405180910390f35b6103de60048036038101906103d99190612c5c565b6124f5565b6040516103eb91906131e4565b60405180910390f35b61040e60048036038101906104099190612c5c565b612515565b005b600260003373ffffffffffffffffffffffffffffffffffffffff1673ffffffffffffffffffffffffffffffffffffffff16815260200190815260200160002060009054906101000a900460ff1661049c576040517f08c379a00000000000000000000000000000000000000000000000000000000081526004016104939061324b565b60405180910390fd5b6000808273ffffffffffffffffffffffffffffffffffffffff1673ffffffffffffffffffffffffffffffffffffffff168152602001908152602001600020600084815260200190815260200160002060050160009054906101000a900460ff161561053c576040517f08c379a0000000000000000000000000000000000000000000000000000000008152600401610533906132dd565b60405180910390fd5b6105478333836123ab565b15610587576040517f08c379a000000000000000000000000000000000000000000000000000000000815260040161057e9061336f565b60405180910390fd5b816000808373ffffffffffffffffffffffffffffffffffffffff1673ffffffffffffffffffffffffffffffffffffffff168152602001908152602001600020600085815260200190815260200160002060070160003373ffffffffffffffffffffffffffffffffffffffff1673ffffffffffffffffffffffffffffffffffffffff1681526020019081526020016000209081610623919061359b565b506000808273ffffffffffffffffffffffffffffffffffffffff1673ffffffffffffffffffffffffffffffffffffffff1681526020019081526020016000206000848152602001908152602001600020600601339080600181540180825580915050600190039060005260206000200160009091909190916101000a81548173ffffffffffffffffffffffffffffffffffffffff021916908373ffffffffffffffffffffffffffffffffffffffff1602179055503373ffffffffffffffffffffffffffffffffffffffff16838273ffffffffffffffffffffffffffffffffffffffff167fcaf0a0cd12e1638f34e59123f56b307d1ad42acc17a45f14bd509eb3b2f48b8f85604051610735919061306c565b60405180910390a46003805490506000808373ffffffffffffffffffffffffffffffffffffffff1673ffffffffffffffffffffffffffffffffffffffff168152602001908152602001600020600085815260200190815260200160002060060180549050036107e357828173ffffffffffffffffffffffffffffffffffffffff167f05601b2b2fe3dcdd39d31806c5a9e8c7c29b12cc61134903ab759a6dc71a24cf60405160405180910390a35b505050565b600460009054906101000a900473ffffffffffffffffffffffffffffffffffffffff1673ffffffffffffffffffffffffffffffffffffffff163373ffffffffffffffffffffffffffffffffffffffff1614610878576040517f08c379a000000000000000000000000000000000000000000000000000000000815260040161086f906136b9565b60405180910390fd5b806000808373ffffffffffffffffffffffffffffffffffffffff1673ffffffffffffffffffffffffffffffffffffffff168152602001908152602001600020600085815260200190815260200160002060000160006101000a81548173ffffffffffffffffffffffffffffffffffffffff021916908373ffffffffffffffffffffffffffffffffffffffff160217905550826000808373ffffffffffffffffffffffffffffffffffffffff1673ffffffffffffffffffffffffffffffffffffffff168152602001908152602001600020600085815260200190815260200160002060010181905550816000808373ffffffffffffffffffffffffffffffffffffffff1673ffffffffffffffffffffffffffffffffffffffff168152602001908152602001600020600085815260200190815260200160002060020190816109bf919061359b565b5060008060008373ffffffffffffffffffffffffffffffffffffffff1673ffffffffffffffffffffffffffffffffffffffff16815260200190815260200160002060008581526020019081526020016000206004018190555060008060008373ffffffffffffffffffffffffffffffffffffffff1673ffffffffffffffffffffffffffffffffffffffff168152602001908152602001600020600085815260200190815260200160002060050160006101000a81548160ff021916908315150217905550600067ffffffffffffffff811115610a9e57610a9d612990565b5b604051908082528060200260200182016040528015610acc5781602001602082028036833780820191505090505b506000808373ffffffffffffffffffffffffffffffffffffffff1673ffffffffffffffffffffffffffffffffffffffff16815260200190815260200160002060008581526020019081526020016000206006019080519060200190610b3292919061287a565b50828173ffffffffffffffffffffffffffffffffffffffff167ffe35edc42b1198c058b7a2a404fa5cfcab719b1ab1f1e8cc6fc6e96f226795de60405160405180910390a3505050565b60038181548110610b8c57600080fd5b906000526020600020016000915054906101000a900473ffffffffffffffffffffffffffffffffffffffff1681565b60008060008373ffffffffffffffffffffffffffffffffffffffff1673ffffffffffffffffffffffffffffffffffffffff168152602001908152602001600020600085815260200190815260200160002060080160008473ffffffffffffffffffffffffffffffffffffffff1673ffffffffffffffffffffffffffffffffffffffff1681526020019081526020016000205490509392505050565b600460009054906101000a900473ffffffffffffffffffffffffffffffffffffffff1673ffffffffffffffffffffffffffffffffffffffff163373ffffffffffffffffffffffffffffffffffffffff1614610ce6576040517f08c379a0000000000000000000000000000000000000000000000000000000008152600401610cdd906136b9565b60405180910390fd5b600260008273ffffffffffffffffffffffffffffffffffffffff1673ffffffffffffffffffffffffffffffffffffffff16815260200190815260200160002060009054906101000a900460ff16610d72576040517f08c379a0000000000000000000000000000000000000000000000000000000008152600401610d6990613725565b60405180910390fd5b60005b600380549050811015610f50578173ffffffffffffffffffffffffffffffffffffffff1660038281548110610dad57610dac613745565b5b9060005260206000200160009054906101000a900473ffffffffffffffffffffffffffffffffffffffff1673ffffffffffffffffffffffffffffffffffffffff1603610f435760036001600380549050610e0791906137a3565b81548110610e1857610e17613745565b5b9060005260206000200160009054906101000a900473ffffffffffffffffffffffffffffffffffffffff1660038281548110610e5757610e56613745565b5b9060005260206000200160006101000a81548173ffffffffffffffffffffffffffffffffffffffff021916908373ffffffffffffffffffffffffffffffffffffffff1602179055506003805480610eb157610eb06137d7565b5b6001900381819060005260206000200160006101000a81549073ffffffffffffffffffffffffffffffffffffffff021916905590556000600260008473ffffffffffffffffffffffffffffffffffffffff1673ffffffffffffffffffffffffffffffffffffffff16815260200190815260200160002060006101000a81548160ff021916908315150217905550610f50565b8080600101915050610d75565b5050565b600460009054906101000a900473ffffffffffffffffffffffffffffffffffffffff1673ffffffffffffffffffffffffffffffffffffffff163373ffffffffffffffffffffffffffffffffffffffff1614610fe4576040517f08c379a0000000000000000000000000000000000000000000000000000000008152600401610fdb906136b9565b60405180910390fd5b600260008273ffffffffffffffffffffffffffffffffffffffff1673ffffffffffffffffffffffffffffffffffffffff16815260200190815260200160002060009054906101000a900460ff1615611071576040517f08c379a000000000000000000000000000000000000000000000000000000000815260040161106890613852565b60405180910390fd5b6003819080600181540180825580915050600190039060005260206000200160009091909190916101000a81548173ffffffffffffffffffffffffffffffffffffffff021916908373ffffffffffffffffffffffffffffffffffffffff1602179055506001600260008373ffffffffffffffffffffffffffffffffffffffff1673ffffffffffffffffffffffffffffffffffffffff16815260200190815260200160002060006101000a81548160ff02191690831515021790555050565b600460009054906101000a900473ffffffffffffffffffffffffffffffffffffffff1673ffffffffffffffffffffffffffffffffffffffff163373ffffffffffffffffffffffffffffffffffffffff16146111bf576040517f08c379a00000000000000000000000000000000000000000000000000000000081526004016111b6906136b9565b60405180910390fd5b8251845114611203576040517f08c379a00000000000000000000000000000000000000000000000000000000081526004016111fa906138be565b60405180910390fd5b60005b84518110156112e45783818151811061122257611221613745565b5b60200260200101516000808473ffffffffffffffffffffffffffffffffffffffff1673ffffffffffffffffffffffffffffffffffffffff1681526020019081526020016000206000888152602001908152602001600020600801600087848151811061129157611290613745565b5b602002602001015173ffffffffffffffffffffffffffffffffffffffff1673ffffffffffffffffffffffffffffffffffffffff168152602001908152602001600020819055508080600101915050611206565b50816000808373ffffffffffffffffffffffffffffffffffffffff1673ffffffffffffffffffffffffffffffffffffffff16815260200190815260200160002060008781526020019081526020016000206003019081611344919061359b565b505050505050565b6000602052816000526040600020602052806000526040600020600091509150508060000160009054906101000a900473ffffffffffffffffffffffffffffffffffffffff16908060010154908060020180546113a8906133be565b80601f01602080910402602001604051908101604052809291908181526020018280546113d4906133be565b80156114215780601f106113f657610100808354040283529160200191611421565b820191906000526020600020905b81548152906001019060200180831161140457829003601f168201915b505050505090806003018054611436906133be565b80601f0160208091040260200160405190810160405280929190818152602001828054611462906133be565b80156114af5780601f10611484576101008083540402835291602001916114af565b820191906000526020600020905b81548152906001019060200180831161149257829003601f168201915b5050505050908060040154908060050160009054906101000a900460ff16905086565b6000806000808473ffffffffffffffffffffffffffffffffffffffff1673ffffffffffffffffffffffffffffffffffffffff168152602001908152602001600020600085815260200190815260200160002060060180549050905060008111611570576040517f08c379a00000000000000000000000000000000000000000000000000000000081526004016115679061392a565b60405180910390fd5b6000805b828110156116ba5760008060008773ffffffffffffffffffffffffffffffffffffffff1673ffffffffffffffffffffffffffffffffffffffff168152602001908152602001600020600088815260200190815260200160002060060182815481106115e2576115e1613745565b5b9060005260206000200160009054906101000a900473ffffffffffffffffffffffffffffffffffffffff1690506000808773ffffffffffffffffffffffffffffffffffffffff1673ffffffffffffffffffffffffffffffffffffffff168152602001908152602001600020600088815260200190815260200160002060080160008273ffffffffffffffffffffffffffffffffffffffff1673ffffffffffffffffffffffffffffffffffffffff16815260200190815260200160002054836116aa919061394a565b9250508080600101915050611574565b5081816116c791906139ad565b9250505092915050565b60606000808373ffffffffffffffffffffffffffffffffffffffff1673ffffffffffffffffffffffffffffffffffffffff168152602001908152602001600020600085815260200190815260200160002060070160008473ffffffffffffffffffffffffffffffffffffffff1673ffffffffffffffffffffffffffffffffffffffff168152602001908152602001600020805461176d906133be565b80601f0160208091040260200160405190810160405280929190818152602001828054611799906133be565b80156117e65780601f106117bb576101008083540402835291602001916117e6565b820191906000526020600020905b8154815290600101906020018083116117c957829003601f168201915b505050505090509392505050565b6000600160008373ffffffffffffffffffffffffffffffffffffffff1673ffffffffffffffffffffffffffffffffffffffff168152602001908152602001600020549050919050565b600460009054906101000a900473ffffffffffffffffffffffffffffffffffffffff1673ffffffffffffffffffffffffffffffffffffffff163373ffffffffffffffffffffffffffffffffffffffff16146118cd576040517f08c379a00000000000000000000000000000000000000000000000000000000081526004016118c4906136b9565b60405180910390fd5b6000600380549050905060008167ffffffffffffffff8111156118f3576118f2612990565b5b6040519080825280602002602001820160405280156119215781602001602082028036833780820191505090505b50905060005b82811015611a7f5760008060008673ffffffffffffffffffffffffffffffffffffffff1673ffffffffffffffffffffffffffffffffffffffff1681526020019081526020016000206000878152602001908152602001600020600601828154811061199557611994613745565b5b9060005260206000200160009054906101000a900473ffffffffffffffffffffffffffffffffffffffff1690506000808673ffffffffffffffffffffffffffffffffffffffff1673ffffffffffffffffffffffffffffffffffffffff168152602001908152602001600020600087815260200190815260200160002060080160008273ffffffffffffffffffffffffffffffffffffffff1673ffffffffffffffffffffffffffffffffffffffff16815260200190815260200160002054838381518110611a6557611a64613745565b5b602002602001018181525050508080600101915050611927565b50611a8981612658565b600080600284611a9991906139ad565b905060005b818111611ae057838181518110611ab857611ab7613745565b5b602002602001015183611acb919061394a565b92508080611ad8906139de565b915050611a9e565b5060008183611aef91906139ad565b90506000816003611b009190613a26565b905060008667ffffffffffffffff811115611b1e57611b1d612990565b5b604051908082528060200260200182016040528015611b4c5781602001602082028036833780820191505090505b50905060005b8651811015611c115782878281518110611b6f57611b6e613745565b5b602002602001015110158015611b9f57506000878281518110611b9557611b94613745565b5b6020026020010151145b15611bc95783828281518110611bb857611bb7613745565b5b602002602001018181525050611c04565b868181518110611bdc57611bdb613745565b5b6020026020010151828281518110611bf757611bf6613745565b5b6020026020010181815250505b8080600101915050611b52565b506000805b8251811015611c5457828181518110611c3257611c31613745565b5b602002602001015182611c45919061394a565b91508080600101915050611c16565b506000825182611c6491906139ad565b9050611c8a604051806080016040528060448152602001613b5060449139858784612792565b806000808c73ffffffffffffffffffffffffffffffffffffffff1673ffffffffffffffffffffffffffffffffffffffff16815260200190815260200160002060008d81526020019081526020016000206004018190555060016000808c73ffffffffffffffffffffffffffffffffffffffff1673ffffffffffffffffffffffffffffffffffffffff16815260200190815260200160002060008d815260200190815260200160002060050160006101000a81548160ff02191690831515021790555060005b898110156120275760008060008d73ffffffffffffffffffffffffffffffffffffffff1673ffffffffffffffffffffffffffffffffffffffff16815260200190815260200160002060008e81526020019081526020016000206006018281548110611dbd57611dbc613745565b5b9060005260206000200160009054906101000a900473ffffffffffffffffffffffffffffffffffffffff16905060008060008e73ffffffffffffffffffffffffffffffffffffffff1673ffffffffffffffffffffffffffffffffffffffff16815260200190815260200160002060008f815260200190815260200160002060080160008373ffffffffffffffffffffffffffffffffffffffff1673ffffffffffffffffffffffffffffffffffffffff1681526020019081526020016000205490506064607d85611e8d9190613a26565b611e9791906139ad565b8111158015611ebe57506064604b85611eb09190613a26565b611eba91906139ad565b8110155b15611f1f57600a600160008473ffffffffffffffffffffffffffffffffffffffff1673ffffffffffffffffffffffffffffffffffffffff1681526020019081526020016000206000828254611f13919061394a565b92505081905550612018565b606460aa85611f2e9190613a26565b611f3891906139ad565b8111158015611f5f57506064601e85611f519190613a26565b611f5b91906139ad565b8110155b15611fc0576005600160008473ffffffffffffffffffffffffffffffffffffffff1673ffffffffffffffffffffffffffffffffffffffff1681526020019081526020016000206000828254611fb4919061394a565b92505081905550612017565b60018060008473ffffffffffffffffffffffffffffffffffffffff1673ffffffffffffffffffffffffffffffffffffffff168152602001908152602001600020600082825461200f919061394a565b925050819055505b5b50508080600101915050611d4f565b508a8a73ffffffffffffffffffffffffffffffffffffffff167f2993d551d3db3e792fcca3eb6af8ee2cc5b9d99b3f4fa45999beba3a2861ce0f8360405161206f9190612c41565b60405180910390a35050505050505050505050565b6060600380548060200260200160405190810160405280929190818152602001828054801561210857602002820191906000526020600020905b8160009054906101000a900473ffffffffffffffffffffffffffffffffffffffff1673ffffffffffffffffffffffffffffffffffffffff16815260200190600101908083116120be575b5050505050905090565b60016020528060005260406000206000915090505481565b60608060008060606000806000808973ffffffffffffffffffffffffffffffffffffffff1673ffffffffffffffffffffffffffffffffffffffff16815260200190815260200160002060008a81526020019081526020016000209050806002018160030182600401548360050160009054906101000a900460ff16846006018560000160009054906101000a900473ffffffffffffffffffffffffffffffffffffffff168580546121da906133be565b80601f0160208091040260200160405190810160405280929190818152602001828054612206906133be565b80156122535780601f1061222857610100808354040283529160200191612253565b820191906000526020600020905b81548152906001019060200180831161223657829003601f168201915b50505050509550848054612266906133be565b80601f0160208091040260200160405190810160405280929190818152602001828054612292906133be565b80156122df5780601f106122b4576101008083540402835291602001916122df565b820191906000526020600020905b8154815290600101906020018083116122c257829003601f168201915b505050505094508180548060200260200160405190810160405280929190818152602001828054801561236757602002820191906000526020600020905b8160009054906101000a900473ffffffffffffffffffffffffffffffffffffffff1673ffffffffffffffffffffffffffffffffffffffff168152602001906001019080831161231d575b50505050509150965096509650965096509650509295509295509295565b600460009054906101000a900473ffffffffffffffffffffffffffffffffffffffff1681565b600080600090505b6000808473ffffffffffffffffffffffffffffffffffffffff1673ffffffffffffffffffffffffffffffffffffffff1681526020019081526020016000206000868152602001908152602001600020600601805490508110156124e8578373ffffffffffffffffffffffffffffffffffffffff166000808573ffffffffffffffffffffffffffffffffffffffff1673ffffffffffffffffffffffffffffffffffffffff1681526020019081526020016000206000878152602001908152602001600020600601828154811061248b5761248a613745565b5b9060005260206000200160009054906101000a900473ffffffffffffffffffffffffffffffffffffffff1673ffffffffffffffffffffffffffffffffffffffff16036124db5760019150506124ee565b80806001019150506123b3565b50600090505b9392505050565b60026020528060005260406000206000915054906101000a900460ff1681565b600460009054906101000a900473ffffffffffffffffffffffffffffffffffffffff1673ffffffffffffffffffffffffffffffffffffffff163373ffffffffffffffffffffffffffffffffffffffff16146125a5576040517f08c379a000000000000000000000000000000000000000000000000000000000815260040161259c906136b9565b60405180910390fd5b600073ffffffffffffffffffffffffffffffffffffffff168173ffffffffffffffffffffffffffffffffffffffff1603612614576040517f08c379a000000000000000000000000000000000000000000000000000000000815260040161260b90613ab4565b60405180910390fd5b80600460006101000a81548173ffffffffffffffffffffffffffffffffffffffff021916908373ffffffffffffffffffffffffffffffffffffffff16021790555050565b60008151905060005b60018261266e91906137a3565b81101561278d5760005b6001828461268691906137a3565b61269091906137a3565b81101561277f57836001826126a5919061394a565b815181106126b6576126b5613745565b5b60200260200101518482815181106126d1576126d0613745565b5b602002602001015111156127725760008482815181106126f4576126f3613745565b5b602002602001015190508460018361270c919061394a565b8151811061271d5761271c613745565b5b602002602001015185838151811061273857612737613745565b5b6020026020010181815250508085600184612753919061394a565b8151811061276457612763613745565b5b602002602001018181525050505b8080600101915050612678565b508080600101915050612661565b505050565b61282e848484846040516024016127ac9493929190613ad4565b6040516020818303038152906040527fa7a87853000000000000000000000000000000000000000000000000000000007bffffffffffffffffffffffffffffffffffffffffffffffffffffffff19166020820180517bffffffffffffffffffffffffffffffffffffffffffffffffffffffff8381831617835250505050612834565b50505050565b61284b8161284361284e61286f565b63ffffffff16565b50565b60006a636f6e736f6c652e6c6f679050600080835160208501845afa505050565b612904819050919050565b8280548282559060005260206000209081019282156128f3579160200282015b828111156128f25782518260006101000a81548173ffffffffffffffffffffffffffffffffffffffff021916908373ffffffffffffffffffffffffffffffffffffffff1602179055509160200191906001019061289a565b5b509050612900919061290e565b5090565b61290c613b20565b565b5b8082111561292757600081600090555060010161290f565b5090565b6000604051905090565b600080fd5b600080fd5b6000819050919050565b6129528161293f565b811461295d57600080fd5b50565b60008135905061296f81612949565b92915050565b600080fd5b600080fd5b6000601f19601f8301169050919050565b7f4e487b7100000000000000000000000000000000000000000000000000000000600052604160045260246000fd5b6129c88261297f565b810181811067ffffffffffffffff821117156129e7576129e6612990565b5b80604052505050565b60006129fa61292b565b9050612a0682826129bf565b919050565b600067ffffffffffffffff821115612a2657612a25612990565b5b612a2f8261297f565b9050602081019050919050565b82818337600083830152505050565b6000612a5e612a5984612a0b565b6129f0565b905082815260208101848484011115612a7a57612a7961297a565b5b612a85848285612a3c565b509392505050565b600082601f830112612aa257612aa1612975565b5b8135612ab2848260208601612a4b565b91505092915050565b600073ffffffffffffffffffffffffffffffffffffffff82169050919050565b6000612ae682612abb565b9050919050565b612af681612adb565b8114612b0157600080fd5b50565b600081359050612b1381612aed565b92915050565b600080600060608486031215612b3257612b31612935565b5b6000612b4086828701612960565b935050602084013567ffffffffffffffff811115612b6157612b6061293a565b5b612b6d86828701612a8d565b9250506040612b7e86828701612b04565b9150509250925092565b600060208284031215612b9e57612b9d612935565b5b6000612bac84828501612960565b91505092915050565b612bbe81612adb565b82525050565b6000602082019050612bd96000830184612bb5565b92915050565b600080600060608486031215612bf857612bf7612935565b5b6000612c0686828701612960565b9350506020612c1786828701612b04565b9250506040612c2886828701612b04565b9150509250925092565b612c3b8161293f565b82525050565b6000602082019050612c566000830184612c32565b92915050565b600060208284031215612c7257612c71612935565b5b6000612c8084828501612b04565b91505092915050565b600067ffffffffffffffff821115612ca457612ca3612990565b5b602082029050602081019050919050565b600080fd5b6000612ccd612cc884612c89565b6129f0565b90508083825260208201905060208402830185811115612cf057612cef612cb5565b5b835b81811015612d195780612d058882612b04565b845260208401935050602081019050612cf2565b5050509392505050565b600082601f830112612d3857612d37612975565b5b8135612d48848260208601612cba565b91505092915050565b600067ffffffffffffffff821115612d6c57612d6b612990565b5b602082029050602081019050919050565b6000612d90612d8b84612d51565b6129f0565b90508083825260208201905060208402830185811115612db357612db2612cb5565b5b835b81811015612ddc5780612dc88882612960565b845260208401935050602081019050612db5565b5050509392505050565b600082601f830112612dfb57612dfa612975565b5b8135612e0b848260208601612d7d565b91505092915050565b600080600080600060a08688031215612e3057612e2f612935565b5b6000612e3e88828901612960565b955050602086013567ffffffffffffffff811115612e5f57612e5e61293a565b5b612e6b88828901612d23565b945050604086013567ffffffffffffffff811115612e8c57612e8b61293a565b5b612e9888828901612de6565b935050606086013567ffffffffffffffff811115612eb957612eb861293a565b5b612ec588828901612a8d565b9250506080612ed688828901612b04565b9150509295509295909350565b60008060408385031215612efa57612ef9612935565b5b6000612f0885828601612b04565b9250506020612f1985828601612960565b9150509250929050565b600081519050919050565b600082825260208201905092915050565b60005b83811015612f5d578082015181840152602081019050612f42565b60008484015250505050565b6000612f7482612f23565b612f7e8185612f2e565b9350612f8e818560208601612f3f565b612f978161297f565b840191505092915050565b60008115159050919050565b612fb781612fa2565b82525050565b600060c082019050612fd26000830189612bb5565b612fdf6020830188612c32565b8181036040830152612ff18187612f69565b905081810360608301526130058186612f69565b90506130146080830185612c32565b61302160a0830184612fae565b979650505050505050565b6000806040838503121561304357613042612935565b5b600061305185828601612960565b925050602061306285828601612b04565b9150509250929050565b600060208201905081810360008301526130868184612f69565b905092915050565b600081519050919050565b600082825260208201905092915050565b6000819050602082019050919050565b6130c381612adb565b82525050565b60006130d583836130ba565b60208301905092915050565b6000602082019050919050565b60006130f98261308e565b6131038185613099565b935061310e836130aa565b8060005b8381101561313f57815161312688826130c9565b9750613131836130e1565b925050600181019050613112565b5085935050505092915050565b6000602082019050818103600083015261316681846130ee565b905092915050565b600060c08201905081810360008301526131888189612f69565b9050818103602083015261319c8188612f69565b90506131ab6040830187612c32565b6131b86060830186612fae565b81810360808301526131ca81856130ee565b90506131d960a0830184612bb5565b979650505050505050565b60006020820190506131f96000830184612fae565b92915050565b7f596f7520617265206e6f7420612076616c696461746f722e0000000000000000600082015250565b6000613235601883612f2e565b9150613240826131ff565b602082019050919050565b6000602082019050818103600083015261326481613228565b9050919050565b7f596f752063616e206f6e6c79206576616c7561746520616e20525741206f6e6360008201527f6520706572204e46542e00000000000000000000000000000000000000000000602082015250565b60006132c7602a83612f2e565b91506132d28261326b565b604082019050919050565b600060208201905081810360008301526132f6816132ba565b9050919050565b7f596f75206861766520616c7265616479206576616c756174656420746869732060008201527f4e46542e00000000000000000000000000000000000000000000000000000000602082015250565b6000613359602483612f2e565b9150613364826132fd565b604082019050919050565b600060208201905081810360008301526133888161334c565b9050919050565b7f4e487b7100000000000000000000000000000000000000000000000000000000600052602260045260246000fd5b600060028204905060018216806133d657607f821691505b6020821081036133e9576133e861338f565b5b50919050565b60008190508160005260206000209050919050565b60006020601f8301049050919050565b600082821b905092915050565b6000600883026134517fffffffffffffffffffffffffffffffffffffffffffffffffffffffffffffffff82613414565b61345b8683613414565b95508019841693508086168417925050509392505050565b6000819050919050565b600061349861349361348e8461293f565b613473565b61293f565b9050919050565b6000819050919050565b6134b28361347d565b6134c66134be8261349f565b848454613421565b825550505050565b600090565b6134db6134ce565b6134e68184846134a9565b505050565b5b8181101561350a576134ff6000826134d3565b6001810190506134ec565b5050565b601f82111561354f57613520816133ef565b61352984613404565b81016020851015613538578190505b61354c61354485613404565b8301826134eb565b50505b505050565b600082821c905092915050565b600061357260001984600802613554565b1980831691505092915050565b600061358b8383613561565b9150826002028217905092915050565b6135a482612f23565b67ffffffffffffffff8111156135bd576135bc612990565b5b6135c782546133be565b6135d282828561350e565b600060209050601f83116001811461360557600084156135f3578287015190505b6135fd858261357f565b865550613665565b601f198416613613866133ef565b60005b8281101561363b57848901518255600182019150602085019450602081019050613616565b868310156136585784890151613654601f891682613561565b8355505b6001600288020188555050505b505050505050565b7f596f7520617265206e6f74207468652061646d696e2e00000000000000000000600082015250565b60006136a3601683612f2e565b91506136ae8261366d565b602082019050919050565b600060208201905081810360008301526136d281613696565b9050919050565b7f56616c696461746f7220646f6573206e6f742065786973740000000000000000600082015250565b600061370f601883612f2e565b915061371a826136d9565b602082019050919050565b6000602082019050818103600083015261373e81613702565b9050919050565b7f4e487b7100000000000000000000000000000000000000000000000000000000600052603260045260246000fd5b7f4e487b7100000000000000000000000000000000000000000000000000000000600052601160045260246000fd5b60006137ae8261293f565b91506137b98361293f565b92508282039050818111156137d1576137d0613774565b5b92915050565b7f4e487b7100000000000000000000000000000000000000000000000000000000600052603160045260246000fd5b7f56616c696461746f7220616c7265616479206578697374730000000000000000600082015250565b600061383c601883612f2e565b915061384782613806565b602082019050919050565b6000602082019050818103600083015261386b8161382f565b9050919050565b7f496e76616c696420696e707574206c656e677468730000000000000000000000600082015250565b60006138a8601583612f2e565b91506138b382613872565b602082019050919050565b600060208201905081810360008301526138d78161389b565b9050919050565b7f4e6f206576616c756174696f6e7320666f722074686973204e46540000000000600082015250565b6000613914601b83612f2e565b915061391f826138de565b602082019050919050565b6000602082019050818103600083015261394381613907565b9050919050565b60006139558261293f565b91506139608361293f565b925082820190508082111561397857613977613774565b5b92915050565b7f4e487b7100000000000000000000000000000000000000000000000000000000600052601260045260246000fd5b60006139b88261293f565b91506139c38361293f565b9250826139d3576139d261397e565b5b828204905092915050565b60006139e98261293f565b91507fffffffffffffffffffffffffffffffffffffffffffffffffffffffffffffffff8203613a1b57613a1a613774565b5b600182019050919050565b6000613a318261293f565b9150613a3c8361293f565b9250828202613a4a8161293f565b91508282048414831517613a6157613a60613774565b5b5092915050565b7f4e65772061646d696e20616464726573732063616e6e6f74206265207a65726f600082015250565b6000613a9e602083612f2e565b9150613aa982613a68565b602082019050919050565b60006020820190508181036000830152613acd81613a91565b9050919050565b60006080820190508181036000830152613aee8187612f69565b9050613afd6020830186612c32565b613b0a6040830185612c32565b613b176060830184612c32565b95945050505050565b7f4e487b7100000000000000000000000000000000000000000000000000000000600052605160045260246000fdfe7570706572426f756e642c206c6f77657248616c66417665726167652c206176657261676556616c756174652066726f6d20257320746f20257320257320746f6b656e73a26469706673582212205abecd1c90178a916f2c5f84cebed86e1c5726bdaba2938e12e7e2ecbf8f141264736f6c63430008180033",
    "linkReferences": {},
    "deployedLinkReferences": {}
}